{
  "contractName": "Get",
  "abi": [
    {
      "constant": false,
      "inputs": [
        {
          "internalType": "uint256",
          "name": "man",
          "type": "uint256"
        }
      ],
      "name": "haha",
      "outputs": [],
      "payable": false,
      "stateMutability": "nonpayable",
      "type": "function"
    }
  ],
  "bytecode": "0x6080604052348015600f57600080fd5b5060978061001e6000396000f3fe6080604052348015600f57600080fd5b506004361060285760003560e01c8063c38239cd14602d575b600080fd5b605660048036036020811015604157600080fd5b81019080803590602001909291905050506058565b005b806000819055505056fea265627a7a72315820542e6c3f8c10549a0615fc48b28795cb8d42d4192762a52d132b8e0e8ffda70264736f6c63430005100032",
  "source": "pragma solidity >=0.4.21 <0.7.0;\r\n\r\nimport \"./SimpleStorage.sol\";\r\n\r\ncontract Get{\r\n\r\n    uint _man;\r\n\r\n    function haha(uint man) public {\r\n        _man = man;\r\n    }\r\n\r\n}",
  "sourcePath": "C:/Users/jackh/Documents/DeFi/simple-dex/contracts/peen.sol",
  "compiler": {
    "name": "solc",
    "version": "0.5.16+commit.9c3226ce.Emscripten.clang"
  },
  "schemaVersion": "3.3.4",
  "updatedAt": "2021-03-07T17:30:58.994Z",
  "devdoc": {
    "methods": {}
  },
  "userdoc": {
    "methods": {}
  }
}