{
  "contractName": "Swap",
  "abi": [
    {
      "inputs": [],
      "name": "count",
      "outputs": [
        {
          "internalType": "uint256",
          "name": "",
          "type": "uint256"
        }
      ],
      "stateMutability": "view",
      "type": "function"
    },
    {
      "inputs": [
        {
          "internalType": "uint256",
          "name": "",
          "type": "uint256"
        }
      ],
      "name": "exitswaps",
      "outputs": [
        {
          "internalType": "uint256",
          "name": "newrate1",
          "type": "uint256"
        },
        {
          "internalType": "uint256",
          "name": "newrate2",
          "type": "uint256"
        }
      ],
      "stateMutability": "view",
      "type": "function"
    },
    {
      "inputs": [
        {
          "internalType": "uint256",
          "name": "",
          "type": "uint256"
        }
      ],
      "name": "initswaps",
      "outputs": [
        {
          "internalType": "address",
          "name": "addr1",
          "type": "address"
        },
        {
          "internalType": "uint256",
          "name": "rate1",
          "type": "uint256"
        },
        {
          "internalType": "address",
          "name": "addr2",
          "type": "address"
        },
        {
          "internalType": "uint256",
          "name": "rate2",
          "type": "uint256"
        },
        {
          "internalType": "uint256",
          "name": "quantity",
          "type": "uint256"
        }
      ],
      "stateMutability": "view",
      "type": "function"
    },
    {
      "inputs": [],
      "name": "mantissa",
      "outputs": [
        {
          "internalType": "uint256",
          "name": "",
          "type": "uint256"
        }
      ],
      "stateMutability": "view",
      "type": "function"
    },
    {
      "inputs": [
        {
          "internalType": "address",
          "name": "_addr1",
          "type": "address"
        },
        {
          "internalType": "uint256",
          "name": "_rate1",
          "type": "uint256"
        },
        {
          "internalType": "address",
          "name": "_addr2",
          "type": "address"
        },
        {
          "internalType": "uint256",
          "name": "_rate2",
          "type": "uint256"
        },
        {
          "internalType": "uint256",
          "name": "_quantity",
          "type": "uint256"
        }
      ],
      "name": "initSwapFunc",
      "outputs": [],
      "stateMutability": "nonpayable",
      "type": "function"
    },
    {
      "inputs": [
        {
          "internalType": "uint256",
          "name": "_key",
          "type": "uint256"
        },
        {
          "internalType": "uint256",
          "name": "_newrate1",
          "type": "uint256"
        },
        {
          "internalType": "uint256",
          "name": "_newrate2",
          "type": "uint256"
        }
      ],
      "name": "exitSwapFunc",
      "outputs": [],
      "stateMutability": "nonpayable",
      "type": "function"
    },
    {
      "inputs": [
        {
          "internalType": "uint256",
          "name": "_key",
          "type": "uint256"
        }
      ],
      "name": "ExecuteSwap",
      "outputs": [
        {
          "internalType": "uint256",
          "name": "",
          "type": "uint256"
        }
      ],
      "stateMutability": "nonpayable",
      "type": "function"
    }
  ],
  "bytecode": "0x608060405260008055670de0b6b3a764000060015534801561002057600080fd5b50610d34806100306000396000f3fe608060405234801561001057600080fd5b506004361061007d5760003560e01c80635c8177a21161005b5780635c8177a2146101735780636e662172146101915780639a45ca2814610213578063be766969146102555761007d565b806306661abd14610082578063367f2328146100a05780633b30df951461012a575b600080fd5b61008a610297565b6040518082815260200191505060405180910390f35b6100cc600480360360208110156100b657600080fd5b810190808035906020019092919050505061029d565b604051808673ffffffffffffffffffffffffffffffffffffffff1681526020018581526020018473ffffffffffffffffffffffffffffffffffffffff1681526020018381526020018281526020019550505050505060405180910390f35b6101566004803603602081101561014057600080fd5b8101908080359060200190929190505050610313565b604051808381526020018281526020019250505060405180910390f35b61017b610337565b6040518082815260200191505060405180910390f35b610211600480360360a08110156101a757600080fd5b81019080803573ffffffffffffffffffffffffffffffffffffffff16906020019092919080359060200190929190803573ffffffffffffffffffffffffffffffffffffffff169060200190929190803590602001909291908035906020019092919050505061033d565b005b61023f6004803603602081101561022957600080fd5b810190808035906020019092919050505061046a565b6040518082815260200191505060405180910390f35b6102956004803603606081101561026b57600080fd5b81019080803590602001909291908035906020019092919080359060200190929190505050610c6c565b005b60005481565b60036020528060005260406000206000915090508060000160009054906101000a900473ffffffffffffffffffffffffffffffffffffffff16908060010154908060020160009054906101000a900473ffffffffffffffffffffffffffffffffffffffff16908060030154908060040154905085565b60026020528060005260406000206000915090508060000154908060010154905082565b60015481565b6040518060a001604052808673ffffffffffffffffffffffffffffffffffffffff1681526020018581526020018473ffffffffffffffffffffffffffffffffffffffff16815260200183815260200182815250600360008054815260200190815260200160002060008201518160000160006101000a81548173ffffffffffffffffffffffffffffffffffffffff021916908373ffffffffffffffffffffffffffffffffffffffff1602179055506020820151816001015560408201518160020160006101000a81548173ffffffffffffffffffffffffffffffffffffffff021916908373ffffffffffffffffffffffffffffffffffffffff1602179055506060820151816003015560808201518160040155905050600160008082825401925050819055505050505050565b6000610474610cba565b604051806040016040528060036000868152602001908152602001600020600101548152602001600360008681526020019081526020016000206003015481525090506104bf610cba565b6040518060400160405280600260008781526020019081526020016000206000015481526020016002600087815260200190815260200160002060010154815250905061050a610cba565b60405180604001604052808460006002811061052257fe5b60200201516001548560006002811061053757fe5b6020020151028161054457fe5b0481526020018460016002811061055757fe5b60200201516001548560016002811061056c57fe5b6020020151028161057957fe5b048152509050610587610cdc565b60405180604001604052806003600089815260200190815260200160002060000160009054906101000a900473ffffffffffffffffffffffffffffffffffffffff1673ffffffffffffffffffffffffffffffffffffffff1673ffffffffffffffffffffffffffffffffffffffff1681526020016003600089815260200190815260200160002060020160009054906101000a900473ffffffffffffffffffffffffffffffffffffffff1673ffffffffffffffffffffffffffffffffffffffff1673ffffffffffffffffffffffffffffffffffffffff1681525090506000808360016002811061067257fe5b60200201518460006002811061068457fe5b6020020151111561069c5760019150600090506106a5565b60009150600190505b60008483600281106106b357fe5b60200201518583600281106106c457fe5b602002015103905060006402540be4008784600281106106e057fe5b60200201516001548402816106f157fe5b04816106f957fe5b04905060007339aa39c021dfbae8fac545936693ac917d5e75639050600073f650c3d88d12db855b8bf7d11be6c55a4e07dcc9905060008614156109cc578173ffffffffffffffffffffffffffffffffffffffff1663a9059cbb8860006002811061076057fe5b60200201516402540be4008d60006002811061077857fe5b60200201516001548161078757fe5b048161078f57fe5b046040518363ffffffff1660e01b8152600401808373ffffffffffffffffffffffffffffffffffffffff16815260200182815260200192505050602060405180830381600087803b1580156107e357600080fd5b505af11580156107f7573d6000803e3d6000fd5b505050506040513d602081101561080d57600080fd5b8101908080519060200190929190505050508073ffffffffffffffffffffffffffffffffffffffff1663a9059cbb8860006002811061084857fe5b6020020151856040518363ffffffff1660e01b8152600401808373ffffffffffffffffffffffffffffffffffffffff16815260200182815260200192505050602060405180830381600087803b1580156108a157600080fd5b505af11580156108b5573d6000803e3d6000fd5b505050506040513d60208110156108cb57600080fd5b8101908080519060200190929190505050508073ffffffffffffffffffffffffffffffffffffffff1663a9059cbb8860016002811061090657fe5b6020020151856402540be4008e60016002811061091f57fe5b60200201516001548161092e57fe5b048161093657fe5b04036040518363ffffffff1660e01b8152600401808373ffffffffffffffffffffffffffffffffffffffff16815260200182815260200192505050602060405180830381600087803b15801561098b57600080fd5b505af115801561099f573d6000803e3d6000fd5b505050506040513d60208110156109b557600080fd5b810190808051906020019092919050505050610c5d565b8173ffffffffffffffffffffffffffffffffffffffff1663a9059cbb886000600281106109f557fe5b6020020151856402540be4008e600060028110610a0e57fe5b602002015160015481610a1d57fe5b0481610a2557fe5b04036040518363ffffffff1660e01b8152600401808373ffffffffffffffffffffffffffffffffffffffff16815260200182815260200192505050602060405180830381600087803b158015610a7a57600080fd5b505af1158015610a8e573d6000803e3d6000fd5b505050506040513d6020811015610aa457600080fd5b8101908080519060200190929190505050508173ffffffffffffffffffffffffffffffffffffffff1663a9059cbb88600160028110610adf57fe5b6020020151856040518363ffffffff1660e01b8152600401808373ffffffffffffffffffffffffffffffffffffffff16815260200182815260200192505050602060405180830381600087803b158015610b3857600080fd5b505af1158015610b4c573d6000803e3d6000fd5b505050506040513d6020811015610b6257600080fd5b8101908080519060200190929190505050508073ffffffffffffffffffffffffffffffffffffffff1663a9059cbb88600160028110610b9d57fe5b60200201516402540be4008d600160028110610bb557fe5b602002015160015481610bc457fe5b0481610bcc57fe5b046040518363ffffffff1660e01b8152600401808373ffffffffffffffffffffffffffffffffffffffff16815260200182815260200192505050602060405180830381600087803b158015610c2057600080fd5b505af1158015610c34573d6000803e3d6000fd5b505050506040513d6020811015610c4a57600080fd5b8101908080519060200190929190505050505b50505050505050505050919050565b604051806040016040528083815260200182815250600260008581526020019081526020016000206000820151816000015560208201518160010155905050610cb48361046a565b50505050565b6040518060400160405280600290602082028036833780820191505090505090565b604051806040016040528060029060208202803683378082019150509050509056fea2646970667358221220bfdb19709a32f9ddeb5faea8e0d738fa0650d21e425d16a35fcfaa015376e49164736f6c63430007000033",
  "immutableReferences": {},
  "source": "pragma solidity >=0.6.0 <0.8.0;\r\n\r\nimport \"../client/node_modules/@openzeppelin/contracts/token/ERC20/IERC20.sol\";\r\n\r\ncontract Swap {\r\n    uint256 public count = 0;\r\n\r\n    uint256 public mantissa = 10**18;\r\n\r\n    mapping(uint256 => exitSwap) public exitswaps;\r\n\r\n    mapping(uint256 => initSwap) public initswaps;\r\n\r\n    struct initSwap {\r\n        address addr1;\r\n        uint256 rate1;\r\n        address addr2;\r\n        uint256 rate2;\r\n        uint256 quantity;\r\n    }\r\n\r\n    struct exitSwap {\r\n        uint256 newrate1;\r\n        uint256 newrate2;\r\n    }\r\n\r\n    function initSwapFunc(\r\n        address _addr1,\r\n        uint256 _rate1,\r\n        address _addr2,\r\n        uint256 _rate2,\r\n        uint256 _quantity\r\n    ) public {\r\n        initswaps[count] = initSwap(_addr1, _rate1, _addr2, _rate2, _quantity);\r\n        count += 1;\r\n    }\r\n\r\n    function exitSwapFunc(\r\n        uint256 _key,\r\n        uint256 _newrate1,\r\n        uint256 _newrate2\r\n    ) public {\r\n        exitswaps[_key] = exitSwap(_newrate1, _newrate2);\r\n\r\n        ExecuteSwap(_key);\r\n    }\r\n\r\n    function ExecuteSwap(uint256 _key) public returns (uint256) {\r\n        uint256[2] memory rates = [\r\n            initswaps[_key].rate1,\r\n            initswaps[_key].rate2\r\n        ];\r\n        uint256[2] memory newrates = [\r\n            exitswaps[_key].newrate1,\r\n            exitswaps[_key].newrate2\r\n        ];\r\n        uint256[2] memory newvals = [\r\n            (uint256(newrates[0]) * mantissa) / uint256(rates[0]),\r\n            (uint256(newrates[1]) * mantissa) / uint256(rates[1])\r\n        ];\r\n        address[2] memory addresses = [\r\n            initswaps[_key].addr1,\r\n            initswaps[_key].addr2\r\n        ];\r\n\r\n        uint256 min;\r\n        uint256 max;\r\n\r\n        if (newvals[0] > newvals[1]) {\r\n            min = 1;\r\n            max = 0;\r\n        } else {\r\n            min = 0;\r\n            max = 1;\r\n        }\r\n\r\n        uint256 dif = newvals[max] - newvals[min];\r\n\r\n        //gets to 8 decimals\r\n\r\n        uint256 exchange = ((uint256(dif) * mantissa) /\r\n            uint256(newrates[max])) / uint256(10**10);\r\n\r\n        IERC20 cUSDC = IERC20(0x39AA39c021dfbaE8faC545936693aC917d5E7563);\r\n        IERC20 cUSDT = IERC20(0xf650C3d88D12dB855b8bf7D11Be6C55A4e07dCC9);\r\n\r\n        if (min == 0) {\r\n            cUSDC.transfer(\r\n                addresses[0],\r\n                (uint256(mantissa) / uint256(rates[0]) / uint256(10**10))\r\n            );\r\n            cUSDT.transfer(addresses[0], exchange);\r\n\r\n            cUSDT.transfer(\r\n                addresses[1],\r\n                (uint256(mantissa) / uint256(rates[1]) / uint256(10**10)) -\r\n                    exchange\r\n            );\r\n        } else {\r\n            cUSDC.transfer(\r\n                addresses[0],\r\n                (uint256(mantissa) / uint256(rates[0]) / uint256(10**10)) -\r\n                    exchange\r\n            );\r\n\r\n            cUSDC.transfer(addresses[1], exchange);\r\n            cUSDT.transfer(\r\n                addresses[1],\r\n                (uint256(mantissa) / uint256(rates[1]) / uint256(10**10))\r\n            );\r\n        }\r\n    }\r\n}\r\n",
  "sourcePath": "C:/Users/jackh/Documents/DeFi/simple-dex/contracts/cSwap.sol",
  "compiler": {
    "name": "solc",
    "version": "0.7.0+commit.9e61f92b.Emscripten.clang"
  },
  "schemaVersion": "3.3.4",
  "updatedAt": "2021-07-20T02:07:02.664Z",
  "devdoc": {
    "kind": "dev",
    "methods": {},
    "version": 1
  },
  "userdoc": {
    "kind": "user",
    "methods": {},
    "version": 1
  }
}